{
  "contractName": "TokenVaults",
  "abi": [
    {
      "inputs": [],
      "stateMutability": "nonpayable",
      "type": "constructor"
    },
    {
      "anonymous": false,
      "inputs": [
        {
          "indexed": true,
          "internalType": "address",
          "name": "owner",
          "type": "address"
        },
        {
          "indexed": true,
          "internalType": "address",
          "name": "approved",
          "type": "address"
        },
        {
          "indexed": true,
          "internalType": "uint256",
          "name": "tokenId",
          "type": "uint256"
        }
      ],
      "name": "Approval",
      "type": "event"
    },
    {
      "anonymous": false,
      "inputs": [
        {
          "indexed": true,
          "internalType": "address",
          "name": "owner",
          "type": "address"
        },
        {
          "indexed": true,
          "internalType": "address",
          "name": "operator",
          "type": "address"
        },
        {
          "indexed": false,
          "internalType": "bool",
          "name": "approved",
          "type": "bool"
        }
      ],
      "name": "ApprovalForAll",
      "type": "event"
    },
    {
      "anonymous": false,
      "inputs": [
        {
          "components": [
            {
              "internalType": "contract IERC20[]",
              "name": "erc20Tokens",
              "type": "address[]"
            },
            {
              "internalType": "uint256[]",
              "name": "erc20TokensAmounts",
              "type": "uint256[]"
            },
            {
              "internalType": "contract IERC721[]",
              "name": "erc721Tokens",
              "type": "address[]"
            },
            {
              "internalType": "uint256[][]",
              "name": "erc721TokensIds",
              "type": "uint256[][]"
            },
            {
              "internalType": "uint256",
              "name": "ethAmount",
              "type": "uint256"
            },
            {
              "internalType": "address",
              "name": "creator",
              "type": "address"
            },
            {
              "internalType": "uint256",
              "name": "unlockTime",
              "type": "uint256"
            },
            {
              "internalType": "enum TokenVaults.State",
              "name": "state",
              "type": "uint8"
            }
          ],
          "indexed": false,
          "internalType": "struct TokenVaults.Vault",
          "name": "vault",
          "type": "tuple"
        },
        {
          "indexed": false,
          "internalType": "uint256",
          "name": "withdrawalTime",
          "type": "uint256"
        }
      ],
      "name": "LogVaultAssetsWithdrawn",
      "type": "event"
    },
    {
      "anonymous": false,
      "inputs": [
        {
          "components": [
            {
              "internalType": "contract IERC20[]",
              "name": "erc20Tokens",
              "type": "address[]"
            },
            {
              "internalType": "uint256[]",
              "name": "erc20TokensAmounts",
              "type": "uint256[]"
            },
            {
              "internalType": "contract IERC721[]",
              "name": "erc721Tokens",
              "type": "address[]"
            },
            {
              "internalType": "uint256[][]",
              "name": "erc721TokensIds",
              "type": "uint256[][]"
            },
            {
              "internalType": "uint256",
              "name": "ethAmount",
              "type": "uint256"
            },
            {
              "internalType": "address",
              "name": "creator",
              "type": "address"
            },
            {
              "internalType": "uint256",
              "name": "unlockTime",
              "type": "uint256"
            },
            {
              "internalType": "enum TokenVaults.State",
              "name": "state",
              "type": "uint8"
            }
          ],
          "indexed": false,
          "internalType": "struct TokenVaults.Vault",
          "name": "vault",
          "type": "tuple"
        }
      ],
      "name": "LogVaultCreated",
      "type": "event"
    },
    {
      "anonymous": false,
      "inputs": [
        {
          "indexed": true,
          "internalType": "address",
          "name": "previousOwner",
          "type": "address"
        },
        {
          "indexed": true,
          "internalType": "address",
          "name": "newOwner",
          "type": "address"
        }
      ],
      "name": "OwnershipTransferred",
      "type": "event"
    },
    {
      "anonymous": false,
      "inputs": [
        {
          "indexed": false,
          "internalType": "address",
          "name": "account",
          "type": "address"
        }
      ],
      "name": "Paused",
      "type": "event"
    },
    {
      "anonymous": false,
      "inputs": [
        {
          "indexed": true,
          "internalType": "address",
          "name": "from",
          "type": "address"
        },
        {
          "indexed": true,
          "internalType": "address",
          "name": "to",
          "type": "address"
        },
        {
          "indexed": true,
          "internalType": "uint256",
          "name": "tokenId",
          "type": "uint256"
        }
      ],
      "name": "Transfer",
      "type": "event"
    },
    {
      "anonymous": false,
      "inputs": [
        {
          "indexed": false,
          "internalType": "address",
          "name": "account",
          "type": "address"
        }
      ],
      "name": "Unpaused",
      "type": "event"
    },
    {
      "inputs": [
        {
          "internalType": "address",
          "name": "to",
          "type": "address"
        },
        {
          "internalType": "uint256",
          "name": "tokenId",
          "type": "uint256"
        }
      ],
      "name": "approve",
      "outputs": [],
      "stateMutability": "nonpayable",
      "type": "function"
    },
    {
      "inputs": [
        {
          "internalType": "address",
          "name": "owner",
          "type": "address"
        }
      ],
      "name": "balanceOf",
      "outputs": [
        {
          "internalType": "uint256",
          "name": "",
          "type": "uint256"
        }
      ],
      "stateMutability": "view",
      "type": "function",
      "constant": true
    },
    {
      "inputs": [
        {
          "internalType": "uint256",
          "name": "tokenId",
          "type": "uint256"
        }
      ],
      "name": "getApproved",
      "outputs": [
        {
          "internalType": "address",
          "name": "",
          "type": "address"
        }
      ],
      "stateMutability": "view",
      "type": "function",
      "constant": true
    },
    {
      "inputs": [
        {
          "internalType": "address",
          "name": "owner",
          "type": "address"
        },
        {
          "internalType": "address",
          "name": "operator",
          "type": "address"
        }
      ],
      "name": "isApprovedForAll",
      "outputs": [
        {
          "internalType": "bool",
          "name": "",
          "type": "bool"
        }
      ],
      "stateMutability": "view",
      "type": "function",
      "constant": true
    },
    {
      "inputs": [],
      "name": "name",
      "outputs": [
        {
          "internalType": "string",
          "name": "",
          "type": "string"
        }
      ],
      "stateMutability": "view",
      "type": "function",
      "constant": true
    },
    {
      "inputs": [],
      "name": "owner",
      "outputs": [
        {
          "internalType": "address",
          "name": "",
          "type": "address"
        }
      ],
      "stateMutability": "view",
      "type": "function",
      "constant": true
    },
    {
      "inputs": [
        {
          "internalType": "uint256",
          "name": "tokenId",
          "type": "uint256"
        }
      ],
      "name": "ownerOf",
      "outputs": [
        {
          "internalType": "address",
          "name": "",
          "type": "address"
        }
      ],
      "stateMutability": "view",
      "type": "function",
      "constant": true
    },
    {
      "inputs": [],
      "name": "paused",
      "outputs": [
        {
          "internalType": "bool",
          "name": "",
          "type": "bool"
        }
      ],
      "stateMutability": "view",
      "type": "function",
      "constant": true
    },
    {
      "inputs": [],
      "name": "renounceOwnership",
      "outputs": [],
      "stateMutability": "nonpayable",
      "type": "function"
    },
    {
      "inputs": [
        {
          "internalType": "address",
          "name": "from",
          "type": "address"
        },
        {
          "internalType": "address",
          "name": "to",
          "type": "address"
        },
        {
          "internalType": "uint256",
          "name": "tokenId",
          "type": "uint256"
        }
      ],
      "name": "safeTransferFrom",
      "outputs": [],
      "stateMutability": "nonpayable",
      "type": "function"
    },
    {
      "inputs": [
        {
          "internalType": "address",
          "name": "from",
          "type": "address"
        },
        {
          "internalType": "address",
          "name": "to",
          "type": "address"
        },
        {
          "internalType": "uint256",
          "name": "tokenId",
          "type": "uint256"
        },
        {
          "internalType": "bytes",
          "name": "_data",
          "type": "bytes"
        }
      ],
      "name": "safeTransferFrom",
      "outputs": [],
      "stateMutability": "nonpayable",
      "type": "function"
    },
    {
      "inputs": [
        {
          "internalType": "address",
          "name": "operator",
          "type": "address"
        },
        {
          "internalType": "bool",
          "name": "approved",
          "type": "bool"
        }
      ],
      "name": "setApprovalForAll",
      "outputs": [],
      "stateMutability": "nonpayable",
      "type": "function"
    },
    {
      "inputs": [
        {
          "internalType": "bytes4",
          "name": "interfaceId",
          "type": "bytes4"
        }
      ],
      "name": "supportsInterface",
      "outputs": [
        {
          "internalType": "bool",
          "name": "",
          "type": "bool"
        }
      ],
      "stateMutability": "view",
      "type": "function",
      "constant": true
    },
    {
      "inputs": [],
      "name": "symbol",
      "outputs": [
        {
          "internalType": "string",
          "name": "",
          "type": "string"
        }
      ],
      "stateMutability": "view",
      "type": "function",
      "constant": true
    },
    {
      "inputs": [
        {
          "internalType": "address",
          "name": "from",
          "type": "address"
        },
        {
          "internalType": "address",
          "name": "to",
          "type": "address"
        },
        {
          "internalType": "uint256",
          "name": "tokenId",
          "type": "uint256"
        }
      ],
      "name": "transferFrom",
      "outputs": [],
      "stateMutability": "nonpayable",
      "type": "function"
    },
    {
      "inputs": [
        {
          "internalType": "address",
          "name": "newOwner",
          "type": "address"
        }
      ],
      "name": "transferOwnership",
      "outputs": [],
      "stateMutability": "nonpayable",
      "type": "function"
    },
    {
      "inputs": [],
      "name": "pause",
      "outputs": [],
      "stateMutability": "nonpayable",
      "type": "function"
    },
    {
      "inputs": [],
      "name": "unpause",
      "outputs": [],
      "stateMutability": "nonpayable",
      "type": "function"
    },
    {
      "inputs": [
        {
          "internalType": "uint256",
          "name": "tokenId",
          "type": "uint256"
        }
      ],
      "name": "tokenURI",
      "outputs": [
        {
          "internalType": "string",
          "name": "",
          "type": "string"
        }
      ],
      "stateMutability": "view",
      "type": "function",
      "constant": true
    },
    {
      "inputs": [
        {
          "internalType": "address",
          "name": "",
          "type": "address"
        },
        {
          "internalType": "address",
          "name": "",
          "type": "address"
        },
        {
          "internalType": "uint256",
          "name": "",
          "type": "uint256"
        },
        {
          "internalType": "bytes",
          "name": "",
          "type": "bytes"
        }
      ],
      "name": "onERC721Received",
      "outputs": [
        {
          "internalType": "bytes4",
          "name": "",
          "type": "bytes4"
        }
      ],
      "stateMutability": "pure",
      "type": "function",
      "constant": true
    },
    {
      "inputs": [
        {
          "internalType": "contract IERC20[]",
          "name": "erc20Tokens",
          "type": "address[]"
        },
        {
          "internalType": "uint256[]",
          "name": "erc20TokensAmounts",
          "type": "uint256[]"
        },
        {
          "internalType": "contract IERC721[]",
          "name": "erc721Tokens",
          "type": "address[]"
        },
        {
          "internalType": "uint256[][]",
          "name": "erc721TokensIds",
          "type": "uint256[][]"
        },
        {
          "internalType": "address",
          "name": "beneficiary",
          "type": "address"
        },
        {
          "internalType": "uint256",
          "name": "unlockTime",
          "type": "uint256"
        }
      ],
      "name": "createVault",
      "outputs": [],
      "stateMutability": "payable",
      "type": "function",
      "payable": true
    },
    {
      "inputs": [
        {
          "internalType": "uint256",
          "name": "vaultId",
          "type": "uint256"
        }
      ],
      "name": "vaultData",
      "outputs": [
        {
          "components": [
            {
              "internalType": "contract IERC20[]",
              "name": "erc20Tokens",
              "type": "address[]"
            },
            {
              "internalType": "uint256[]",
              "name": "erc20TokensAmounts",
              "type": "uint256[]"
            },
            {
              "internalType": "contract IERC721[]",
              "name": "erc721Tokens",
              "type": "address[]"
            },
            {
              "internalType": "uint256[][]",
              "name": "erc721TokensIds",
              "type": "uint256[][]"
            },
            {
              "internalType": "uint256",
              "name": "ethAmount",
              "type": "uint256"
            },
            {
              "internalType": "address",
              "name": "creator",
              "type": "address"
            },
            {
              "internalType": "uint256",
              "name": "unlockTime",
              "type": "uint256"
            },
            {
              "internalType": "enum TokenVaults.State",
              "name": "state",
              "type": "uint8"
            }
          ],
          "internalType": "struct TokenVaults.Vault",
          "name": "",
          "type": "tuple"
        }
      ],
      "stateMutability": "view",
      "type": "function",
      "constant": true
    },
    {
      "inputs": [
        {
          "internalType": "uint256",
          "name": "vaultId",
          "type": "uint256"
        }
      ],
      "name": "withdrawAssets",
      "outputs": [],
      "stateMutability": "nonpayable",
      "type": "function"
    },
    {
      "inputs": [],
      "name": "withdrawGains",
      "outputs": [],
      "stateMutability": "nonpayable",
      "type": "function"
    }
  ],
  "bytecode": "0x608060405266038d7ea4c68000600660156101000a81548167ffffffffffffffff021916908367ffffffffffffffff1602179055503480156200004157600080fd5b506040518060400160405280600f81526020017f546f6b656e5661756c74546f6b656e00000000000000000000000000000000008152506040518060400160405280600381526020017f54565400000000000000000000000000000000000000000000000000000000008152508160009080519060200190620000c6929190620001f1565b508060019080519060200190620000df929190620001f1565b5050506000600660006101000a81548160ff0219169083151502179055506200011d620001116200012360201b60201c565b6200012b60201b60201c565b62000306565b600033905090565b6000600660019054906101000a900473ffffffffffffffffffffffffffffffffffffffff16905081600660016101000a81548173ffffffffffffffffffffffffffffffffffffffff021916908373ffffffffffffffffffffffffffffffffffffffff1602179055508173ffffffffffffffffffffffffffffffffffffffff168173ffffffffffffffffffffffffffffffffffffffff167f8be0079c531659141344cd1fd0a4f28419497f9722a3daafe3b4186f6b6457e060405160405180910390a35050565b828054620001ff90620002d0565b90600052602060002090601f0160209004810192826200022357600085556200026f565b82601f106200023e57805160ff19168380011785556200026f565b828001600101855582156200026f579182015b828111156200026e57825182559160200191906001019062000251565b5b5090506200027e919062000282565b5090565b5b808211156200029d57600081600090555060010162000283565b5090565b7f4e487b7100000000000000000000000000000000000000000000000000000000600052602260045260246000fd5b60006002820490506001821680620002e957607f821691505b602082108114156200030057620002ff620002a1565b5b50919050565b615fb680620003166000396000f3fe60806040526004361061014b5760003560e01c806370a08231116100b6578063a22cb4651161006f578063a22cb4651461045d578063b88d4fde14610486578063c87b56dd146104af578063d1033c07146104ec578063e985e9c514610515578063f2fde38b146105525761014b565b806370a082311461035f578063715018a61461039c5780637aacfffa146103b35780638456cb59146103f05780638da5cb5b1461040757806395d89b41146104325761014b565b806323b872dd1161010857806323b872dd146102775780633f4ba83a146102a057806342842e0e146102b7578063483f0219146102e05780635c975abb146102f75780636352211e146103225761014b565b806301ffc9a7146101505780630587ff0c1461018d57806306fdde03146101a9578063081812fc146101d4578063095ea7b314610211578063150b7a021461023a575b600080fd5b34801561015c57600080fd5b5061017760048036038101906101729190613382565b61057b565b60405161018491906133ca565b60405180910390f35b6101a760048036038101906101a291906138b5565b61065d565b005b3480156101b557600080fd5b506101be610b7d565b6040516101cb9190613a3a565b60405180910390f35b3480156101e057600080fd5b506101fb60048036038101906101f69190613a5c565b610c0f565b6040516102089190613a98565b60405180910390f35b34801561021d57600080fd5b5061023860048036038101906102339190613ab3565b610c94565b005b34801561024657600080fd5b50610261600480360381019061025c9190613b4e565b610dac565b60405161026e9190613be5565b60405180910390f35b34801561028357600080fd5b5061029e60048036038101906102999190613c00565b610dc1565b005b3480156102ac57600080fd5b506102b5610e21565b005b3480156102c357600080fd5b506102de60048036038101906102d99190613c00565b610ea7565b005b3480156102ec57600080fd5b506102f5610ec7565b005b34801561030357600080fd5b5061030c610fab565b60405161031991906133ca565b60405180910390f35b34801561032e57600080fd5b5061034960048036038101906103449190613a5c565b610fc2565b6040516103569190613a98565b60405180910390f35b34801561036b57600080fd5b5061038660048036038101906103819190613c53565b611074565b6040516103939190613c8f565b60405180910390f35b3480156103a857600080fd5b506103b161112c565b005b3480156103bf57600080fd5b506103da60048036038101906103d59190613a5c565b6111b4565b6040516103e79190614142565b60405180910390f35b3480156103fc57600080fd5b506104056114de565b005b34801561041357600080fd5b5061041c611564565b6040516104299190613a98565b60405180910390f35b34801561043e57600080fd5b5061044761158e565b6040516104549190613a3a565b60405180910390f35b34801561046957600080fd5b50610484600480360381019061047f9190614190565b611620565b005b34801561049257600080fd5b506104ad60048036038101906104a89190614285565b611636565b005b3480156104bb57600080fd5b506104d660048036038101906104d19190613a5c565b611698565b6040516104e39190613a3a565b60405180910390f35b3480156104f857600080fd5b50610513600480360381019061050e9190613a5c565b611737565b005b34801561052157600080fd5b5061053c60048036038101906105379190614308565b611bd9565b60405161054991906133ca565b60405180910390f35b34801561055e57600080fd5b5061057960048036038101906105749190613c53565b611c6d565b005b60007f80ac58cd000000000000000000000000000000000000000000000000000000007bffffffffffffffffffffffffffffffffffffffffffffffffffffffff1916827bffffffffffffffffffffffffffffffffffffffffffffffffffffffff1916148061064657507f5b5e139f000000000000000000000000000000000000000000000000000000007bffffffffffffffffffffffffffffffffffffffffffffffffffffffff1916827bffffffffffffffffffffffffffffffffffffffffffffffffffffffff1916145b80610656575061065582611d65565b5b9050919050565b610665610fab565b156106a5576040517f08c379a000000000000000000000000000000000000000000000000000000000815260040161069c90614394565b60405180910390fd5b600660159054906101000a900467ffffffffffffffff1667ffffffffffffffff16341015610708576040517f08c379a00000000000000000000000000000000000000000000000000000000081526004016106ff90614426565b60405180910390fd5b42811161074a576040517f08c379a0000000000000000000000000000000000000000000000000000000008152600401610741906144b8565b60405180910390fd5b600073ffffffffffffffffffffffffffffffffffffffff168273ffffffffffffffffffffffffffffffffffffffff1614156107ba576040517f08c379a00000000000000000000000000000000000000000000000000000000081526004016107b19061454a565b60405180910390fd5b84518651146107fe576040517f08c379a00000000000000000000000000000000000000000000000000000000081526004016107f590614602565b60405180910390fd5b8251845114610842576040517f08c379a0000000000000000000000000000000000000000000000000000000008152600401610839906146ba565b60405180910390fd5b61084f3387878787611dcf565b600660159054906101000a900467ffffffffffffffff1667ffffffffffffffff16600760008282546108819190614709565b92505081905550604051806101000160405280878152602001868152602001858152602001848152602001600660159054906101000a900467ffffffffffffffff1667ffffffffffffffff16346108d8919061475f565b81526020013373ffffffffffffffffffffffffffffffffffffffff1681526020018281526020016000600181111561091357610912614006565b5b8152506008600060095481526020019081526020016000206000820151816000019080519060200190610947929190613086565b506020820151816001019080519060200190610964929190613110565b50604082015181600201908051906020019061098192919061315d565b50606082015181600301908051906020019061099e9291906131e7565b506080820151816004015560a08201518160050160006101000a81548173ffffffffffffffffffffffffffffffffffffffff021916908373ffffffffffffffffffffffffffffffffffffffff16021790555060c0820151816006015560e08201518160070160006101000a81548160ff02191690836001811115610a2557610a24614006565b5b0217905550905050600a60003373ffffffffffffffffffffffffffffffffffffffff1673ffffffffffffffffffffffffffffffffffffffff1681526020019081526020016000206009549080600181540180825580915050600190039060005260206000200160009091909190915055600b60008373ffffffffffffffffffffffffffffffffffffffff1673ffffffffffffffffffffffffffffffffffffffff1681526020019081526020016000206009549080600181540180825580915050600190039060005260206000200160009091909190915055610b0982600954611f72565b6001600954610b189190614709565b6009819055507f54e2b50375a01310183f17b0493fa5b5d1fd9e015f63d9b509c78c1dc34a2c54600860006001600954610b52919061475f565b8152602001908152602001600020604051610b6d9190614c2c565b60405180910390a1505050505050565b606060008054610b8c90614c7d565b80601f0160208091040260200160405190810160405280929190818152602001828054610bb890614c7d565b8015610c055780601f10610bda57610100808354040283529160200191610c05565b820191906000526020600020905b815481529060010190602001808311610be857829003601f168201915b5050505050905090565b6000610c1a82611f90565b610c59576040517f08c379a0000000000000000000000000000000000000000000000000000000008152600401610c5090614d21565b60405180910390fd5b6004600083815260200190815260200160002060009054906101000a900473ffffffffffffffffffffffffffffffffffffffff169050919050565b6000610c9f82610fc2565b90508073ffffffffffffffffffffffffffffffffffffffff168373ffffffffffffffffffffffffffffffffffffffff161415610d10576040517f08c379a0000000000000000000000000000000000000000000000000000000008152600401610d0790614db3565b60405180910390fd5b8073ffffffffffffffffffffffffffffffffffffffff16610d2f611ffc565b73ffffffffffffffffffffffffffffffffffffffff161480610d5e5750610d5d81610d58611ffc565b611bd9565b5b610d9d576040517f08c379a0000000000000000000000000000000000000000000000000000000008152600401610d9490614e45565b60405180910390fd5b610da78383612004565b505050565b600063150b7a0260e01b905095945050505050565b610dd2610dcc611ffc565b826120bd565b610e11576040517f08c379a0000000000000000000000000000000000000000000000000000000008152600401610e0890614ed7565b60405180910390fd5b610e1c83838361219b565b505050565b610e29611ffc565b73ffffffffffffffffffffffffffffffffffffffff16610e47611564565b73ffffffffffffffffffffffffffffffffffffffff1614610e9d576040517f08c379a0000000000000000000000000000000000000000000000000000000008152600401610e9490614f43565b60405180910390fd5b610ea56123f7565b565b610ec283838360405180602001604052806000815250611636565b505050565b610ecf611ffc565b73ffffffffffffffffffffffffffffffffffffffff16610eed611564565b73ffffffffffffffffffffffffffffffffffffffff1614610f43576040517f08c379a0000000000000000000000000000000000000000000000000000000008152600401610f3a90614f43565b60405180910390fd5b600060075411610f88576040517f08c379a0000000000000000000000000000000000000000000000000000000008152600401610f7f90614faf565b60405180910390fd5b600060075490506000600781905550610fa8610fa2611564565b82612499565b50565b6000600660009054906101000a900460ff16905090565b6000806002600084815260200190815260200160002060009054906101000a900473ffffffffffffffffffffffffffffffffffffffff169050600073ffffffffffffffffffffffffffffffffffffffff168173ffffffffffffffffffffffffffffffffffffffff16141561106b576040517f08c379a000000000000000000000000000000000000000000000000000000000815260040161106290615041565b60405180910390fd5b80915050919050565b60008073ffffffffffffffffffffffffffffffffffffffff168273ffffffffffffffffffffffffffffffffffffffff1614156110e5576040517f08c379a00000000000000000000000000000000000000000000000000000000081526004016110dc906150d3565b60405180910390fd5b600360008373ffffffffffffffffffffffffffffffffffffffff1673ffffffffffffffffffffffffffffffffffffffff168152602001908152602001600020549050919050565b611134611ffc565b73ffffffffffffffffffffffffffffffffffffffff16611152611564565b73ffffffffffffffffffffffffffffffffffffffff16146111a8576040517f08c379a000000000000000000000000000000000000000000000000000000000815260040161119f90614f43565b60405180910390fd5b6111b2600061258d565b565b6111bc613247565b6009548210611200576040517f08c379a00000000000000000000000000000000000000000000000000000000081526004016111f79061513f565b60405180910390fd5b6008600083815260200190815260200160002060405180610100016040529081600082018054806020026020016040519081016040528092919081815260200182805480156112a457602002820191906000526020600020905b8160009054906101000a900473ffffffffffffffffffffffffffffffffffffffff1673ffffffffffffffffffffffffffffffffffffffff168152602001906001019080831161125a575b50505050508152602001600182018054806020026020016040519081016040528092919081815260200182805480156112fc57602002820191906000526020600020905b8154815260200190600101908083116112e8575b505050505081526020016002820180548060200260200160405190810160405280929190818152602001828054801561138a57602002820191906000526020600020905b8160009054906101000a900473ffffffffffffffffffffffffffffffffffffffff1673ffffffffffffffffffffffffffffffffffffffff1681526020019060010190808311611340575b5050505050815260200160038201805480602002602001604051908101604052809291908181526020016000905b8282101561142a5783829060005260206000200180548060200260200160405190810160405280929190818152602001828054801561141657602002820191906000526020600020905b815481526020019060010190808311611402575b5050505050815260200190600101906113b8565b505050508152602001600482015481526020016005820160009054906101000a900473ffffffffffffffffffffffffffffffffffffffff1673ffffffffffffffffffffffffffffffffffffffff1673ffffffffffffffffffffffffffffffffffffffff168152602001600682015481526020016007820160009054906101000a900460ff1660018111156114c1576114c0614006565b5b60018111156114d3576114d2614006565b5b815250509050919050565b6114e6611ffc565b73ffffffffffffffffffffffffffffffffffffffff16611504611564565b73ffffffffffffffffffffffffffffffffffffffff161461155a576040517f08c379a000000000000000000000000000000000000000000000000000000000815260040161155190614f43565b60405180910390fd5b611562612653565b565b6000600660019054906101000a900473ffffffffffffffffffffffffffffffffffffffff16905090565b60606001805461159d90614c7d565b80601f01602080910402602001604051908101604052809291908181526020018280546115c990614c7d565b80156116165780601f106115eb57610100808354040283529160200191611616565b820191906000526020600020905b8154815290600101906020018083116115f957829003601f168201915b5050505050905090565b61163261162b611ffc565b83836126f6565b5050565b611647611641611ffc565b836120bd565b611686576040517f08c379a000000000000000000000000000000000000000000000000000000000815260040161167d90614ed7565b60405180910390fd5b61169284848484612863565b50505050565b60606116a382611f90565b6116e2576040517f08c379a00000000000000000000000000000000000000000000000000000000081526004016116d9906151d1565b60405180910390fd5b60006116ec6128bf565b9050600081511161170c576040518060200160405280600081525061172f565b808360405160200161171f92919061524e565b6040516020818303038152906040525b915050919050565b61173f610fab565b1561177f576040517f08c379a000000000000000000000000000000000000000000000000000000000815260040161177690614394565b60405180910390fd5b60095481106117c3576040517f08c379a00000000000000000000000000000000000000000000000000000000081526004016117ba906152e8565b60405180910390fd5b6000600860008381526020019081526020016000209050600060018111156117ee576117ed614006565b5b8160070160009054906101000a900460ff16600181111561181257611811614006565b5b14611852576040517f08c379a00000000000000000000000000000000000000000000000000000000081526004016118499061537a565b60405180910390fd5b600061185d83610fc2565b90508073ffffffffffffffffffffffffffffffffffffffff163373ffffffffffffffffffffffffffffffffffffffff16146118cd576040517f08c379a00000000000000000000000000000000000000000000000000000000081526004016118c49061540c565b60405180910390fd5b4282600601541115611914576040517f08c379a000000000000000000000000000000000000000000000000000000000815260040161190b9061549e565b60405180910390fd5b60018260070160006101000a81548160ff0219169083600181111561193c5761193b614006565b5b021790555060005b82600001805490508110156119fd57600083600001828154811061196b5761196a6154be565b5b9060005260206000200160009054906101000a900473ffffffffffffffffffffffffffffffffffffffff16905060008460010183815481106119b0576119af6154be565b5b906000526020600020015490506119e884828473ffffffffffffffffffffffffffffffffffffffff166128fc9092919063ffffffff16565b505080806119f5906154ed565b915050611944565b5060005b8260020180549050811015611b8c576000836002018281548110611a2857611a276154be565b5b9060005260206000200160009054906101000a900473ffffffffffffffffffffffffffffffffffffffff1690506000846003018381548110611a6d57611a6c6154be565b5b90600052602060002001805480602002602001604051908101604052809291908181526020018280548015611ac157602002820191906000526020600020905b815481526020019060010190808311611aad575b5050505050905060005b8151811015611b76576000828281518110611ae957611ae86154be565b5b602002602001015190508373ffffffffffffffffffffffffffffffffffffffff166342842e0e3088846040518463ffffffff1660e01b8152600401611b3093929190615536565b600060405180830381600087803b158015611b4a57600080fd5b505af1158015611b5e573d6000803e3d6000fd5b50505050508080611b6e906154ed565b915050611acb565b5050508080611b84906154ed565b915050611a01565b50611b9b818360040154612499565b7f9d650fed4cc13cf065d7114419d8c49f1ebbae147f85596b5b9c233a5e11ad978242604051611bcc92919061565c565b60405180910390a1505050565b6000600560008473ffffffffffffffffffffffffffffffffffffffff1673ffffffffffffffffffffffffffffffffffffffff16815260200190815260200160002060008373ffffffffffffffffffffffffffffffffffffffff1673ffffffffffffffffffffffffffffffffffffffff16815260200190815260200160002060009054906101000a900460ff16905092915050565b611c75611ffc565b73ffffffffffffffffffffffffffffffffffffffff16611c93611564565b73ffffffffffffffffffffffffffffffffffffffff1614611ce9576040517f08c379a0000000000000000000000000000000000000000000000000000000008152600401611ce090614f43565b60405180910390fd5b600073ffffffffffffffffffffffffffffffffffffffff168173ffffffffffffffffffffffffffffffffffffffff161415611d59576040517f08c379a0000000000000000000000000000000000000000000000000000000008152600401611d50906156fe565b60405180910390fd5b611d628161258d565b50565b60007f01ffc9a7000000000000000000000000000000000000000000000000000000007bffffffffffffffffffffffffffffffffffffffffffffffffffffffff1916827bffffffffffffffffffffffffffffffffffffffffffffffffffffffff1916149050919050565b60005b8451811015611e5b576000858281518110611df057611def6154be565b5b602002602001015190506000858381518110611e0f57611e0e6154be565b5b60200260200101519050611e468830838573ffffffffffffffffffffffffffffffffffffffff16612982909392919063ffffffff16565b50508080611e53906154ed565b915050611dd2565b5060005b8251811015611f6a576000838281518110611e7d57611e7c6154be565b5b602002602001015190506000838381518110611e9c57611e9b6154be565b5b6020026020010151905060005b8151811015611f54576000828281518110611ec757611ec66154be565b5b602002602001015190508373ffffffffffffffffffffffffffffffffffffffff166342842e0e8b30846040518463ffffffff1660e01b8152600401611f0e93929190615536565b600060405180830381600087803b158015611f2857600080fd5b505af1158015611f3c573d6000803e3d6000fd5b50505050508080611f4c906154ed565b915050611ea9565b5050508080611f62906154ed565b915050611e5f565b505050505050565b611f8c828260405180602001604052806000815250612a0b565b5050565b60008073ffffffffffffffffffffffffffffffffffffffff166002600084815260200190815260200160002060009054906101000a900473ffffffffffffffffffffffffffffffffffffffff1673ffffffffffffffffffffffffffffffffffffffff1614159050919050565b600033905090565b816004600083815260200190815260200160002060006101000a81548173ffffffffffffffffffffffffffffffffffffffff021916908373ffffffffffffffffffffffffffffffffffffffff160217905550808273ffffffffffffffffffffffffffffffffffffffff1661207783610fc2565b73ffffffffffffffffffffffffffffffffffffffff167f8c5be1e5ebec7d5bd14f71427d1e84f3dd0314c0f7b2291e5b200ac8c7c3b92560405160405180910390a45050565b60006120c882611f90565b612107576040517f08c379a00000000000000000000000000000000000000000000000000000000081526004016120fe90615790565b60405180910390fd5b600061211283610fc2565b90508073ffffffffffffffffffffffffffffffffffffffff168473ffffffffffffffffffffffffffffffffffffffff16148061218157508373ffffffffffffffffffffffffffffffffffffffff1661216984610c0f565b73ffffffffffffffffffffffffffffffffffffffff16145b8061219257506121918185611bd9565b5b91505092915050565b8273ffffffffffffffffffffffffffffffffffffffff166121bb82610fc2565b73ffffffffffffffffffffffffffffffffffffffff1614612211576040517f08c379a000000000000000000000000000000000000000000000000000000000815260040161220890615822565b60405180910390fd5b600073ffffffffffffffffffffffffffffffffffffffff168273ffffffffffffffffffffffffffffffffffffffff161415612281576040517f08c379a0000000000000000000000000000000000000000000000000000000008152600401612278906158b4565b60405180910390fd5b61228c838383612a66565b612297600082612004565b6001600360008573ffffffffffffffffffffffffffffffffffffffff1673ffffffffffffffffffffffffffffffffffffffff16815260200190815260200160002060008282546122e7919061475f565b925050819055506001600360008473ffffffffffffffffffffffffffffffffffffffff1673ffffffffffffffffffffffffffffffffffffffff168152602001908152602001600020600082825461233e9190614709565b92505081905550816002600083815260200190815260200160002060006101000a81548173ffffffffffffffffffffffffffffffffffffffff021916908373ffffffffffffffffffffffffffffffffffffffff160217905550808273ffffffffffffffffffffffffffffffffffffffff168473ffffffffffffffffffffffffffffffffffffffff167fddf252ad1be2c89b69c2b068fc378daa952ba7f163c4a11628f55a4df523b3ef60405160405180910390a4505050565b6123ff610fab565b61243e576040517f08c379a000000000000000000000000000000000000000000000000000000000815260040161243590615920565b60405180910390fd5b6000600660006101000a81548160ff0219169083151502179055507f5db9ee0a495bf2e6ff9c91a7834c1ba4fdd244a5e8aa4e537bd38aeae4b073aa612482611ffc565b60405161248f9190613a98565b60405180910390a1565b804710156124dc576040517f08c379a00000000000000000000000000000000000000000000000000000000081526004016124d39061598c565b60405180910390fd5b60008273ffffffffffffffffffffffffffffffffffffffff1682604051612502906159dd565b60006040518083038185875af1925050503d806000811461253f576040519150601f19603f3d011682016040523d82523d6000602084013e612544565b606091505b5050905080612588576040517f08c379a000000000000000000000000000000000000000000000000000000000815260040161257f90615a64565b60405180910390fd5b505050565b6000600660019054906101000a900473ffffffffffffffffffffffffffffffffffffffff16905081600660016101000a81548173ffffffffffffffffffffffffffffffffffffffff021916908373ffffffffffffffffffffffffffffffffffffffff1602179055508173ffffffffffffffffffffffffffffffffffffffff168173ffffffffffffffffffffffffffffffffffffffff167f8be0079c531659141344cd1fd0a4f28419497f9722a3daafe3b4186f6b6457e060405160405180910390a35050565b61265b610fab565b1561269b576040517f08c379a000000000000000000000000000000000000000000000000000000000815260040161269290614394565b60405180910390fd5b6001600660006101000a81548160ff0219169083151502179055507f62e78cea01bee320cd4e420270b5ea74000d11b0c9f74754ebdbfc544b05a2586126df611ffc565b6040516126ec9190613a98565b60405180910390a1565b8173ffffffffffffffffffffffffffffffffffffffff168373ffffffffffffffffffffffffffffffffffffffff161415612765576040517f08c379a000000000000000000000000000000000000000000000000000000000815260040161275c90615ad0565b60405180910390fd5b80600560008573ffffffffffffffffffffffffffffffffffffffff1673ffffffffffffffffffffffffffffffffffffffff16815260200190815260200160002060008473ffffffffffffffffffffffffffffffffffffffff1673ffffffffffffffffffffffffffffffffffffffff16815260200190815260200160002060006101000a81548160ff0219169083151502179055508173ffffffffffffffffffffffffffffffffffffffff168373ffffffffffffffffffffffffffffffffffffffff167f17307eab39ab6107e8899845ad3d59bd9653f200f220920489ca2b5937696c318360405161285691906133ca565b60405180910390a3505050565b61286e84848461219b565b61287a84848484612abe565b6128b9576040517f08c379a00000000000000000000000000000000000000000000000000000000081526004016128b090615b62565b60405180910390fd5b50505050565b60606040518060400160405280601981526020017f68747470733a2f2f746f6b656e7661756c742e78797a2f6d2f00000000000000815250905090565b61297d8363a9059cbb60e01b848460405160240161291b929190615b82565b604051602081830303815290604052907bffffffffffffffffffffffffffffffffffffffffffffffffffffffff19166020820180517bffffffffffffffffffffffffffffffffffffffffffffffffffffffff8381831617835250505050612c46565b505050565b612a05846323b872dd60e01b8585856040516024016129a393929190615536565b604051602081830303815290604052907bffffffffffffffffffffffffffffffffffffffffffffffffffffffff19166020820180517bffffffffffffffffffffffffffffffffffffffffffffffffffffffff8381831617835250505050612c46565b50505050565b612a158383612d0d565b612a226000848484612abe565b612a61576040517f08c379a0000000000000000000000000000000000000000000000000000000008152600401612a5890615b62565b60405180910390fd5b505050565b612a6e610fab565b15612aae576040517f08c379a0000000000000000000000000000000000000000000000000000000008152600401612aa590614394565b60405180910390fd5b612ab9838383612edb565b505050565b6000612adf8473ffffffffffffffffffffffffffffffffffffffff16612ee0565b15612c39578373ffffffffffffffffffffffffffffffffffffffff1663150b7a02612b08611ffc565b8786866040518563ffffffff1660e01b8152600401612b2a9493929190615c00565b6020604051808303816000875af1925050508015612b6657506040513d601f19601f82011682018060405250810190612b639190615c61565b60015b612be9573d8060008114612b96576040519150601f19603f3d011682016040523d82523d6000602084013e612b9b565b606091505b50600081511415612be1576040517f08c379a0000000000000000000000000000000000000000000000000000000008152600401612bd890615b62565b60405180910390fd5b805181602001fd5b63150b7a0260e01b7bffffffffffffffffffffffffffffffffffffffffffffffffffffffff1916817bffffffffffffffffffffffffffffffffffffffffffffffffffffffff191614915050612c3e565b600190505b949350505050565b6000612ca8826040518060400160405280602081526020017f5361666545524332303a206c6f772d6c6576656c2063616c6c206661696c65648152508573ffffffffffffffffffffffffffffffffffffffff16612ef39092919063ffffffff16565b9050600081511115612d085780806020019051810190612cc89190615ca3565b612d07576040517f08c379a0000000000000000000000000000000000000000000000000000000008152600401612cfe90615d42565b60405180910390fd5b5b505050565b600073ffffffffffffffffffffffffffffffffffffffff168273ffffffffffffffffffffffffffffffffffffffff161415612d7d576040517f08c379a0000000000000000000000000000000000000000000000000000000008152600401612d7490615dae565b60405180910390fd5b612d8681611f90565b15612dc6576040517f08c379a0000000000000000000000000000000000000000000000000000000008152600401612dbd90615e1a565b60405180910390fd5b612dd260008383612a66565b6001600360008473ffffffffffffffffffffffffffffffffffffffff1673ffffffffffffffffffffffffffffffffffffffff1681526020019081526020016000206000828254612e229190614709565b92505081905550816002600083815260200190815260200160002060006101000a81548173ffffffffffffffffffffffffffffffffffffffff021916908373ffffffffffffffffffffffffffffffffffffffff160217905550808273ffffffffffffffffffffffffffffffffffffffff16600073ffffffffffffffffffffffffffffffffffffffff167fddf252ad1be2c89b69c2b068fc378daa952ba7f163c4a11628f55a4df523b3ef60405160405180910390a45050565b505050565b600080823b905060008111915050919050565b6060612f028484600085612f0b565b90509392505050565b606082471015612f50576040517f08c379a0000000000000000000000000000000000000000000000000000000008152600401612f4790615eac565b60405180910390fd5b612f5985612ee0565b612f98576040517f08c379a0000000000000000000000000000000000000000000000000000000008152600401612f8f90615f18565b60405180910390fd5b6000808673ffffffffffffffffffffffffffffffffffffffff168587604051612fc19190615f69565b60006040518083038185875af1925050503d8060008114612ffe576040519150601f19603f3d011682016040523d82523d6000602084013e613003565b606091505b509150915061301382828661301f565b92505050949350505050565b6060831561302f5782905061307f565b6000835111156130425782518084602001fd5b816040517f08c379a00000000000000000000000000000000000000000000000000000000081526004016130769190613a3a565b60405180910390fd5b9392505050565b8280548282559060005260206000209081019282156130ff579160200282015b828111156130fe5782518260006101000a81548173ffffffffffffffffffffffffffffffffffffffff021916908373ffffffffffffffffffffffffffffffffffffffff160217905550916020019190600101906130a6565b5b50905061310c91906132b4565b5090565b82805482825590600052602060002090810192821561314c579160200282015b8281111561314b578251825591602001919060010190613130565b5b50905061315991906132b4565b5090565b8280548282559060005260206000209081019282156131d6579160200282015b828111156131d55782518260006101000a81548173ffffffffffffffffffffffffffffffffffffffff021916908373ffffffffffffffffffffffffffffffffffffffff1602179055509160200191906001019061317d565b5b5090506131e391906132b4565b5090565b828054828255906000526020600020908101928215613236579160200282015b82811115613235578251829080519060200190613225929190613110565b5091602001919060010190613207565b5b50905061324391906132d1565b5090565b6040518061010001604052806060815260200160608152602001606081526020016060815260200160008152602001600073ffffffffffffffffffffffffffffffffffffffff16815260200160008152602001600060018111156132ae576132ad614006565b5b81525090565b5b808211156132cd5760008160009055506001016132b5565b5090565b5b808211156132f157600081816132e891906132f5565b506001016132d2565b5090565b508054600082559060005260206000209081019061331391906132b4565b50565b6000604051905090565b600080fd5b600080fd5b60007fffffffff0000000000000000000000000000000000000000000000000000000082169050919050565b61335f8161332a565b811461336a57600080fd5b50565b60008135905061337c81613356565b92915050565b60006020828403121561339857613397613320565b5b60006133a68482850161336d565b91505092915050565b60008115159050919050565b6133c4816133af565b82525050565b60006020820190506133df60008301846133bb565b92915050565b600080fd5b6000601f19601f8301169050919050565b7f4e487b7100000000000000000000000000000000000000000000000000000000600052604160045260246000fd5b613433826133ea565b810181811067ffffffffffffffff82111715613452576134516133fb565b5b80604052505050565b6000613465613316565b9050613471828261342a565b919050565b600067ffffffffffffffff821115613491576134906133fb565b5b602082029050602081019050919050565b600080fd5b600073ffffffffffffffffffffffffffffffffffffffff82169050919050565b60006134d2826134a7565b9050919050565b60006134e4826134c7565b9050919050565b6134f4816134d9565b81146134ff57600080fd5b50565b600081359050613511816134eb565b92915050565b600061352a61352584613476565b61345b565b9050808382526020820190506020840283018581111561354d5761354c6134a2565b5b835b8181101561357657806135628882613502565b84526020840193505060208101905061354f565b5050509392505050565b600082601f830112613595576135946133e5565b5b81356135a5848260208601613517565b91505092915050565b600067ffffffffffffffff8211156135c9576135c86133fb565b5b602082029050602081019050919050565b6000819050919050565b6135ed816135da565b81146135f857600080fd5b50565b60008135905061360a816135e4565b92915050565b600061362361361e846135ae565b61345b565b90508083825260208201905060208402830185811115613646576136456134a2565b5b835b8181101561366f578061365b88826135fb565b845260208401935050602081019050613648565b5050509392505050565b600082601f83011261368e5761368d6133e5565b5b813561369e848260208601613610565b91505092915050565b600067ffffffffffffffff8211156136c2576136c16133fb565b5b602082029050602081019050919050565b60006136de826134c7565b9050919050565b6136ee816136d3565b81146136f957600080fd5b50565b60008135905061370b816136e5565b92915050565b600061372461371f846136a7565b61345b565b90508083825260208201905060208402830185811115613747576137466134a2565b5b835b81811015613770578061375c88826136fc565b845260208401935050602081019050613749565b5050509392505050565b600082601f83011261378f5761378e6133e5565b5b813561379f848260208601613711565b91505092915050565b600067ffffffffffffffff8211156137c3576137c26133fb565b5b602082029050602081019050919050565b60006137e76137e2846137a8565b61345b565b9050808382526020820190506020840283018581111561380a576138096134a2565b5b835b8181101561385157803567ffffffffffffffff81111561382f5761382e6133e5565b5b80860161383c8982613679565b8552602085019450505060208101905061380c565b5050509392505050565b600082601f8301126138705761386f6133e5565b5b81356138808482602086016137d4565b91505092915050565b613892816134c7565b811461389d57600080fd5b50565b6000813590506138af81613889565b92915050565b60008060008060008060c087890312156138d2576138d1613320565b5b600087013567ffffffffffffffff8111156138f0576138ef613325565b5b6138fc89828a01613580565b965050602087013567ffffffffffffffff81111561391d5761391c613325565b5b61392989828a01613679565b955050604087013567ffffffffffffffff81111561394a57613949613325565b5b61395689828a0161377a565b945050606087013567ffffffffffffffff81111561397757613976613325565b5b61398389828a0161385b565b935050608061399489828a016138a0565b92505060a06139a589828a016135fb565b9150509295509295509295565b600081519050919050565b600082825260208201905092915050565b60005b838110156139ec5780820151818401526020810190506139d1565b838111156139fb576000848401525b50505050565b6000613a0c826139b2565b613a1681856139bd565b9350613a268185602086016139ce565b613a2f816133ea565b840191505092915050565b60006020820190508181036000830152613a548184613a01565b905092915050565b600060208284031215613a7257613a71613320565b5b6000613a80848285016135fb565b91505092915050565b613a92816134c7565b82525050565b6000602082019050613aad6000830184613a89565b92915050565b60008060408385031215613aca57613ac9613320565b5b6000613ad8858286016138a0565b9250506020613ae9858286016135fb565b9150509250929050565b600080fd5b60008083601f840112613b0e57613b0d6133e5565b5b8235905067ffffffffffffffff811115613b2b57613b2a613af3565b5b602083019150836001820283011115613b4757613b466134a2565b5b9250929050565b600080600080600060808688031215613b6a57613b69613320565b5b6000613b78888289016138a0565b9550506020613b89888289016138a0565b9450506040613b9a888289016135fb565b935050606086013567ffffffffffffffff811115613bbb57613bba613325565b5b613bc788828901613af8565b92509250509295509295909350565b613bdf8161332a565b82525050565b6000602082019050613bfa6000830184613bd6565b92915050565b600080600060608486031215613c1957613c18613320565b5b6000613c27868287016138a0565b9350506020613c38868287016138a0565b9250506040613c49868287016135fb565b9150509250925092565b600060208284031215613c6957613c68613320565b5b6000613c77848285016138a0565b91505092915050565b613c89816135da565b82525050565b6000602082019050613ca46000830184613c80565b92915050565b600081519050919050565b600082825260208201905092915050565b6000819050602082019050919050565b6000819050919050565b6000613cfb613cf6613cf1846134a7565b613cd6565b6134a7565b9050919050565b6000613d0d82613ce0565b9050919050565b6000613d1f82613d02565b9050919050565b613d2f81613d14565b82525050565b6000613d418383613d26565b60208301905092915050565b6000602082019050919050565b6000613d6582613caa565b613d6f8185613cb5565b9350613d7a83613cc6565b8060005b83811015613dab578151613d928882613d35565b9750613d9d83613d4d565b925050600181019050613d7e565b5085935050505092915050565b600081519050919050565b600082825260208201905092915050565b6000819050602082019050919050565b613ded816135da565b82525050565b6000613dff8383613de4565b60208301905092915050565b6000602082019050919050565b6000613e2382613db8565b613e2d8185613dc3565b9350613e3883613dd4565b8060005b83811015613e69578151613e508882613df3565b9750613e5b83613e0b565b925050600181019050613e3c565b5085935050505092915050565b600081519050919050565b6000819050602082019050919050565b6000613e9c82613d02565b9050919050565b613eac81613e91565b82525050565b6000613ebe8383613ea3565b60208301905092915050565b6000602082019050919050565b6000613ee282613e76565b613eec8185613cb5565b9350613ef783613e81565b8060005b83811015613f28578151613f0f8882613eb2565b9750613f1a83613eca565b925050600181019050613efb565b5085935050505092915050565b600081519050919050565b600082825260208201905092915050565b6000819050602082019050919050565b6000613f6d8383613e18565b905092915050565b6000602082019050919050565b6000613f8d82613f35565b613f978185613f40565b935083602082028501613fa985613f51565b8060005b85811015613fe55784840389528151613fc68582613f61565b9450613fd183613f75565b925060208a01995050600181019050613fad565b50829750879550505050505092915050565b614000816134c7565b82525050565b7f4e487b7100000000000000000000000000000000000000000000000000000000600052602160045260246000fd5b6002811061404657614045614006565b5b50565b600081905061405782614035565b919050565b600061406782614049565b9050919050565b6140778161405c565b82525050565b600061010083016000830151848203600086015261409b8282613d5a565b915050602083015184820360208601526140b58282613e18565b915050604083015184820360408601526140cf8282613ed7565b915050606083015184820360608601526140e98282613f82565b91505060808301516140fe6080860182613de4565b5060a083015161411160a0860182613ff7565b5060c083015161412460c0860182613de4565b5060e083015161413760e086018261406e565b508091505092915050565b6000602082019050818103600083015261415c818461407d565b905092915050565b61416d816133af565b811461417857600080fd5b50565b60008135905061418a81614164565b92915050565b600080604083850312156141a7576141a6613320565b5b60006141b5858286016138a0565b92505060206141c68582860161417b565b9150509250929050565b600080fd5b600067ffffffffffffffff8211156141f0576141ef6133fb565b5b6141f9826133ea565b9050602081019050919050565b82818337600083830152505050565b6000614228614223846141d5565b61345b565b905082815260208101848484011115614244576142436141d0565b5b61424f848285614206565b509392505050565b600082601f83011261426c5761426b6133e5565b5b813561427c848260208601614215565b91505092915050565b6000806000806080858703121561429f5761429e613320565b5b60006142ad878288016138a0565b94505060206142be878288016138a0565b93505060406142cf878288016135fb565b925050606085013567ffffffffffffffff8111156142f0576142ef613325565b5b6142fc87828801614257565b91505092959194509250565b6000806040838503121561431f5761431e613320565b5b600061432d858286016138a0565b925050602061433e858286016138a0565b9150509250929050565b7f5061757361626c653a2070617573656400000000000000000000000000000000600082015250565b600061437e6010836139bd565b915061438982614348565b602082019050919050565b600060208201905081810360008301526143ad81614371565b9050919050565b7f437265617465205661756c743a204e6f7420656e6f756768204554482e20437260008201527f656174696e672061207661756c7420636f73747320302e303031204554480000602082015250565b6000614410603e836139bd565b915061441b826143b4565b604082019050919050565b6000602082019050818103600083015261443f81614403565b9050919050565b7f437265617465205661756c743a20756e6c6f636b2074696d652069732062656660008201527f6f72652063757272656e742074696d6500000000000000000000000000000000602082015250565b60006144a26030836139bd565b91506144ad82614446565b604082019050919050565b600060208201905081810360008301526144d181614495565b9050919050565b7f437265617465205661756c743a2062656e65666963696172792061646472657360008201527f732063616e6e6f74206265203078300000000000000000000000000000000000602082015250565b6000614534602f836139bd565b915061453f826144d8565b604082019050919050565b6000602082019050818103600083015261456381614527565b9050919050565b7f437265617465205661756c743a20455243323020746f6b656e7320617272617960008201527f206c656e67746820616e6420746f6b656e20616d6f756e74732061727261792060208201527f6c656e677468206d69736d617463680000000000000000000000000000000000604082015250565b60006145ec604f836139bd565b91506145f78261456a565b606082019050919050565b6000602082019050818103600083015261461b816145df565b9050919050565b7f437265617465205661756c743a2045524337323120746f6b656e73206172726160008201527f79206c656e67746820616e6420746f6b656e20696473206172726179206c656e60208201527f677468206d69736d617463680000000000000000000000000000000000000000604082015250565b60006146a4604c836139bd565b91506146af82614622565b606082019050919050565b600060208201905081810360008301526146d381614697565b9050919050565b7f4e487b7100000000000000000000000000000000000000000000000000000000600052601160045260246000fd5b6000614714826135da565b915061471f836135da565b9250827fffffffffffffffffffffffffffffffffffffffffffffffffffffffffffffffff03821115614754576147536146da565b5b828201905092915050565b600061476a826135da565b9150614775836135da565b925082821015614788576147876146da565b5b828203905092915050565b600081549050919050565b60008190508160005260206000209050919050565b60008160001c9050919050565b600073ffffffffffffffffffffffffffffffffffffffff82169050919050565b60006147f36147ee836147b3565b6147c0565b9050919050565b600061480682546147e0565b9050919050565b6000600182019050919050565b600061482582614793565b61482f8185613cb5565b935061483a8361479e565b8060005b838110156148725761484f826147fa565b6148598882613d35565b97506148648361480d565b92505060018101905061483e565b5085935050505092915050565b600081549050919050565b60008190508160005260206000209050919050565b6000819050919050565b60006148bc6148b7836147b3565b61489f565b9050919050565b60006148cf82546148a9565b9050919050565b6000600182019050919050565b60006148ee8261487f565b6148f88185613dc3565b93506149038361488a565b8060005b8381101561493b57614918826148c3565b6149228882613df3565b975061492d836148d6565b925050600181019050614907565b5085935050505092915050565b600081549050919050565b60008190508160005260206000209050919050565b600073ffffffffffffffffffffffffffffffffffffffff82169050919050565b600061499b614996836147b3565b614968565b9050919050565b60006149ae8254614988565b9050919050565b6000600182019050919050565b60006149cd82614948565b6149d78185613cb5565b93506149e283614953565b8060005b83811015614a1a576149f7826149a2565b614a018882613eb2565b9750614a0c836149b5565b9250506001810190506149e6565b5085935050505092915050565b600081549050919050565b60008190508160005260206000209050919050565b6000614a5383836148e3565b905092915050565b6000600182019050919050565b6000614a7382614a27565b614a7d8185613f40565b935083602082028501614a8f85614a32565b8060005b85811015614aca57848403895281614aab8582614a47565b9450614ab683614a5b565b925060208a01995050600181019050614a93565b50829750879550505050505092915050565b600073ffffffffffffffffffffffffffffffffffffffff82169050919050565b6000614b0f614b0a836147b3565b614adc565b9050919050565b600060ff82169050919050565b6000614b36614b31836147b3565b614b16565b9050919050565b6000610100830160008084018583036000870152614b5b838261481a565b925050600184018583036020870152614b7483826148e3565b925050600284018583036040870152614b8d83826149c2565b925050600384018583036060870152614ba68382614a68565b92505060048401549050614bb9816148a9565b614bc66080870182613de4565b5060058401549050614bd781614afc565b614be460a0870182613ff7565b5060068401549050614bf5816148a9565b614c0260c0870182613de4565b5060078401549050614c1381614b23565b614c2060e087018261406e565b50819250505092915050565b60006020820190508181036000830152614c468184614b3d565b905092915050565b7f4e487b7100000000000000000000000000000000000000000000000000000000600052602260045260246000fd5b60006002820490506001821680614c9557607f821691505b60208210811415614ca957614ca8614c4e565b5b50919050565b7f4552433732313a20617070726f76656420717565727920666f72206e6f6e657860008201527f697374656e7420746f6b656e0000000000000000000000000000000000000000602082015250565b6000614d0b602c836139bd565b9150614d1682614caf565b604082019050919050565b60006020820190508181036000830152614d3a81614cfe565b9050919050565b7f4552433732313a20617070726f76616c20746f2063757272656e74206f776e6560008201527f7200000000000000000000000000000000000000000000000000000000000000602082015250565b6000614d9d6021836139bd565b9150614da882614d41565b604082019050919050565b60006020820190508181036000830152614dcc81614d90565b9050919050565b7f4552433732313a20617070726f76652063616c6c6572206973206e6f74206f7760008201527f6e6572206e6f7220617070726f76656420666f7220616c6c0000000000000000602082015250565b6000614e2f6038836139bd565b9150614e3a82614dd3565b604082019050919050565b60006020820190508181036000830152614e5e81614e22565b9050919050565b7f4552433732313a207472616e736665722063616c6c6572206973206e6f74206f60008201527f776e6572206e6f7220617070726f766564000000000000000000000000000000602082015250565b6000614ec16031836139bd565b9150614ecc82614e65565b604082019050919050565b60006020820190508181036000830152614ef081614eb4565b9050919050565b7f4f776e61626c653a2063616c6c6572206973206e6f7420746865206f776e6572600082015250565b6000614f2d6020836139bd565b9150614f3882614ef7565b602082019050919050565b60006020820190508181036000830152614f5c81614f20565b9050919050565b7f4e6f204761696e7320746f20636c61696d000000000000000000000000000000600082015250565b6000614f996011836139bd565b9150614fa482614f63565b602082019050919050565b60006020820190508181036000830152614fc881614f8c565b9050919050565b7f4552433732313a206f776e657220717565727920666f72206e6f6e657869737460008201527f656e7420746f6b656e0000000000000000000000000000000000000000000000602082015250565b600061502b6029836139bd565b915061503682614fcf565b604082019050919050565b6000602082019050818103600083015261505a8161501e565b9050919050565b7f4552433732313a2062616c616e636520717565727920666f7220746865207a6560008201527f726f206164647265737300000000000000000000000000000000000000000000602082015250565b60006150bd602a836139bd565b91506150c882615061565b604082019050919050565b600060208201905081810360008301526150ec816150b0565b9050919050565b7f4572726f723a204e6f6e206578697374656e74207661756c7400000000000000600082015250565b60006151296019836139bd565b9150615134826150f3565b602082019050919050565b600060208201905081810360008301526151588161511c565b9050919050565b7f4552433732314d657461646174613a2055524920717565727920666f72206e6f60008201527f6e6578697374656e7420746f6b656e0000000000000000000000000000000000602082015250565b60006151bb602f836139bd565b91506151c68261515f565b604082019050919050565b600060208201905081810360008301526151ea816151ae565b9050919050565b600081905092915050565b6000615207826139b2565b61521181856151f1565b93506152218185602086016139ce565b80840191505092915050565b6000819050919050565b615248615243826135da565b61522d565b82525050565b600061525a82856151fc565b91506152668284615237565b6020820191508190509392505050565b7f5769746864726177206173736574733a204e6f6e206578697374656e7420766160008201527f756c740000000000000000000000000000000000000000000000000000000000602082015250565b60006152d26023836139bd565b91506152dd82615276565b604082019050919050565b60006020820190508181036000830152615301816152c5565b9050919050565b7f5769746864726177206173736574733a205661756c7420616c7265616479207760008201527f697468647261776e000000000000000000000000000000000000000000000000602082015250565b60006153646028836139bd565b915061536f82615308565b604082019050919050565b6000602082019050818103600083015261539381615357565b9050919050565b7f5769746864726177206173736574733a2073656e646572206973206e6f74207460008201527f68652062656e6566696369617279206f662074686973207661756c7400000000602082015250565b60006153f6603c836139bd565b91506154018261539a565b604082019050919050565b60006020820190508181036000830152615425816153e9565b9050919050565b7f5769746864726177206173736574733a20756e6c6f636b2074696d652069732060008201527f61667465722063757272656e742074696d650000000000000000000000000000602082015250565b60006154886032836139bd565b91506154938261542c565b604082019050919050565b600060208201905081810360008301526154b78161547b565b9050919050565b7f4e487b7100000000000000000000000000000000000000000000000000000000600052603260045260246000fd5b60006154f8826135da565b91507fffffffffffffffffffffffffffffffffffffffffffffffffffffffffffffffff82141561552b5761552a6146da565b5b600182019050919050565b600060608201905061554b6000830186613a89565b6155586020830185613a89565b6155656040830184613c80565b949350505050565b600061010083016000808401858303600087015261558b838261481a565b9250506001840185830360208701526155a483826148e3565b9250506002840185830360408701526155bd83826149c2565b9250506003840185830360608701526155d68382614a68565b925050600484015490506155e9816148a9565b6155f66080870182613de4565b506005840154905061560781614afc565b61561460a0870182613ff7565b5060068401549050615625816148a9565b61563260c0870182613de4565b506007840154905061564381614b23565b61565060e087018261406e565b50819250505092915050565b60006040820190508181036000830152615676818561556d565b90506156856020830184613c80565b9392505050565b7f4f776e61626c653a206e6577206f776e657220697320746865207a65726f206160008201527f6464726573730000000000000000000000000000000000000000000000000000602082015250565b60006156e86026836139bd565b91506156f38261568c565b604082019050919050565b60006020820190508181036000830152615717816156db565b9050919050565b7f4552433732313a206f70657261746f7220717565727920666f72206e6f6e657860008201527f697374656e7420746f6b656e0000000000000000000000000000000000000000602082015250565b600061577a602c836139bd565b91506157858261571e565b604082019050919050565b600060208201905081810360008301526157a98161576d565b9050919050565b7f4552433732313a207472616e73666572206f6620746f6b656e2074686174206960008201527f73206e6f74206f776e0000000000000000000000000000000000000000000000602082015250565b600061580c6029836139bd565b9150615817826157b0565b604082019050919050565b6000602082019050818103600083015261583b816157ff565b9050919050565b7f4552433732313a207472616e7366657220746f20746865207a65726f2061646460008201527f7265737300000000000000000000000000000000000000000000000000000000602082015250565b600061589e6024836139bd565b91506158a982615842565b604082019050919050565b600060208201905081810360008301526158cd81615891565b9050919050565b7f5061757361626c653a206e6f7420706175736564000000000000000000000000600082015250565b600061590a6014836139bd565b9150615915826158d4565b602082019050919050565b60006020820190508181036000830152615939816158fd565b9050919050565b7f416464726573733a20696e73756666696369656e742062616c616e6365000000600082015250565b6000615976601d836139bd565b915061598182615940565b602082019050919050565b600060208201905081810360008301526159a581615969565b9050919050565b600081905092915050565b50565b60006159c76000836159ac565b91506159d2826159b7565b600082019050919050565b60006159e8826159ba565b9150819050919050565b7f416464726573733a20756e61626c6520746f2073656e642076616c75652c207260008201527f6563697069656e74206d61792068617665207265766572746564000000000000602082015250565b6000615a4e603a836139bd565b9150615a59826159f2565b604082019050919050565b60006020820190508181036000830152615a7d81615a41565b9050919050565b7f4552433732313a20617070726f766520746f2063616c6c657200000000000000600082015250565b6000615aba6019836139bd565b9150615ac582615a84565b602082019050919050565b60006020820190508181036000830152615ae981615aad565b9050919050565b7f4552433732313a207472616e7366657220746f206e6f6e20455243373231526560008201527f63656976657220696d706c656d656e7465720000000000000000000000000000602082015250565b6000615b4c6032836139bd565b9150615b5782615af0565b604082019050919050565b60006020820190508181036000830152615b7b81615b3f565b9050919050565b6000604082019050615b976000830185613a89565b615ba46020830184613c80565b9392505050565b600081519050919050565b600082825260208201905092915050565b6000615bd282615bab565b615bdc8185615bb6565b9350615bec8185602086016139ce565b615bf5816133ea565b840191505092915050565b6000608082019050615c156000830187613a89565b615c226020830186613a89565b615c2f6040830185613c80565b8181036060830152615c418184615bc7565b905095945050505050565b600081519050615c5b81613356565b92915050565b600060208284031215615c7757615c76613320565b5b6000615c8584828501615c4c565b91505092915050565b600081519050615c9d81614164565b92915050565b600060208284031215615cb957615cb8613320565b5b6000615cc784828501615c8e565b91505092915050565b7f5361666545524332303a204552433230206f7065726174696f6e20646964206e60008201527f6f74207375636365656400000000000000000000000000000000000000000000602082015250565b6000615d2c602a836139bd565b9150615d3782615cd0565b604082019050919050565b60006020820190508181036000830152615d5b81615d1f565b9050919050565b7f4552433732313a206d696e7420746f20746865207a65726f2061646472657373600082015250565b6000615d986020836139bd565b9150615da382615d62565b602082019050919050565b60006020820190508181036000830152615dc781615d8b565b9050919050565b7f4552433732313a20746f6b656e20616c7265616479206d696e74656400000000600082015250565b6000615e04601c836139bd565b9150615e0f82615dce565b602082019050919050565b60006020820190508181036000830152615e3381615df7565b9050919050565b7f416464726573733a20696e73756666696369656e742062616c616e636520666f60008201527f722063616c6c0000000000000000000000000000000000000000000000000000602082015250565b6000615e966026836139bd565b9150615ea182615e3a565b604082019050919050565b60006020820190508181036000830152615ec581615e89565b9050919050565b7f416464726573733a2063616c6c20746f206e6f6e2d636f6e7472616374000000600082015250565b6000615f02601d836139bd565b9150615f0d82615ecc565b602082019050919050565b60006020820190508181036000830152615f3181615ef5565b9050919050565b6000615f4382615bab565b615f4d81856159ac565b9350615f5d8185602086016139ce565b80840191505092915050565b6000615f758284615f38565b91508190509291505056fea2646970667358221220de5ee2258085bd24e0547f151197b9376c9456d672346d2b15195c992d36673464736f6c634300080a0033",
  "immutableReferences": {},
  "source": "// SPDX-License-Identifier: MIT\npragma solidity >=0.4.22 <0.9.0;\n\nimport \"@openzeppelin/contracts/token/ERC20/utils/SafeERC20.sol\";\nimport \"@openzeppelin/contracts/token/ERC721/ERC721.sol\";\nimport \"@openzeppelin/contracts/security/Pausable.sol\";\nimport \"@openzeppelin/contracts/access/Ownable.sol\";\nimport \"@openzeppelin/contracts/token/ERC721/IERC721Receiver.sol\";\n\ncontract TokenVaults is ERC721, Pausable, Ownable, IERC721Receiver {\n    using SafeERC20 for IERC20;\n    \n    enum State { Created, Withdrawn }\n    uint64 VAULT_PRICE = 1000000000000000;\n    uint256 gains;\n    \n    struct Vault {\n        //mapping (unit256 => IERC20) erc20Tokens;\n\t\t//IERC20[] erc20Tokens;\n\t\t//mapping (unit256 => IERC721) erc721Tokens;\n\t\t//IERC721[] erc721Tokens;\n\n        //Cannot use mappings here bacause of 'Types in storage containing nested mappings cannot be assigned to' error\n\t\t//How many tokes of that erc20 contract\n// \t\tmapping (IERC20 => uint256) erc20Tokens;\n\t\t//Which tokens of that erc721 contract\n// \t\tmapping (IERC721 => uint256[]) erc721Tokens;\n\t\t\n\t\t    IERC20[] erc20Tokens;\n        uint256[] erc20TokensAmounts;\n        IERC721[] erc721Tokens;\n        uint256[][] erc721TokensIds;\n        uint256 ethAmount;\n        \n        address creator;\n\t\t    uint256 unlockTime;\n\t\t    State state;\n    }\n    \n    event LogVaultCreated(Vault vault);\n    event LogVaultAssetsWithdrawn(Vault vault, uint256 withdrawalTime);\n    \n    mapping (uint256 => Vault) private vaults;\n    // Vault[] private vaults;\n    uint256 vaultsCount;\n    mapping (address => uint256[]) private vaultsByCreator;\n    mapping (address => uint256[]) private vaultsByBeneficiary;\n\n    constructor() ERC721(\"TokenVaultToken\", \"TVT\") {}\n\n    function pause() public onlyOwner {\n        _pause();\n    }\n\n    function unpause() public onlyOwner {\n        _unpause();\n    }\n\n    function _beforeTokenTransfer(address from, address to, uint256 tokenId) internal whenNotPaused override {\n        super._beforeTokenTransfer(from, to, tokenId);\n    }\n\n    function tokenURI(uint256 tokenId) public view override returns (string memory) {\n\t\trequire(_exists(tokenId), \"ERC721Metadata: URI query for nonexistent token\");\n\n\t\tstring memory baseURI = _baseURI();\n\t\treturn bytes(baseURI).length > 0\n\t\t\t? string(abi.encodePacked(baseURI, tokenId))\n\t\t\t: '';\n\t}\n\t\n\tfunction _baseURI() internal pure override returns (string memory) {\n\t\treturn \"https://tokenvault.xyz/m/\";\n\t}\n    \n    function claimAssets(\n        address caller, \n        IERC20[] memory erc20Tokens,\n        uint256[] memory erc20TokensAmounts,\n        IERC721[] memory erc721Tokens,\n        uint256[][] memory erc721TokensIds\n    ) internal {\n        for(uint i = 0; i < erc20Tokens.length; i++) {\n            IERC20 token = erc20Tokens[i];\n            uint256 tokenAmount = erc20TokensAmounts[i];\n            // Require already called in safe transfer from function?\n            // require(token.allowance(caller, address(this)) >= tokenAmount, \"Error: incorrect allowance for ERC20 tokens\");\n            token.safeTransferFrom(caller, address(this), tokenAmount);\n        }\n        \n        for(uint i = 0; i < erc721Tokens.length; i++) {\n            IERC721 token = erc721Tokens[i];\n            uint256[] memory tokenIds = erc721TokensIds[i];\n            for(uint j = 0; j < tokenIds.length; j++) {\n                uint256 tokenId = tokenIds[j];\n                // Require already called in safe transfer from function?\n                // require(token.getApproved(tokenId) == address(this), \"Error: contract not approved for ERC721 tokens\");\n                token.safeTransferFrom(caller, address(this), tokenId);\n            }\n        }\n    }\n\n    function onERC721Received(address, address, uint256, bytes calldata) public pure override returns(bytes4) {\n        return this.onERC721Received.selector;\n    }\n    \n    function createVault(\n        IERC20[] memory erc20Tokens,\n        uint256[] memory erc20TokensAmounts,\n        IERC721[] memory erc721Tokens,\n        uint256[][] memory erc721TokensIds,\n        address beneficiary,\n        uint256 unlockTime\n    ) public payable whenNotPaused {\n        require(msg.value >= VAULT_PRICE, \"Create Vault: Not enough ETH. Creating a vault costs 0.001 ETH\");\n        require(unlockTime > block.timestamp, \"Create Vault: unlock time is before current time\");\n        require(beneficiary != 0x0000000000000000000000000000000000000000, \"Create Vault: beneficiary address cannot be 0x0\");\n        require(erc20Tokens.length == erc20TokensAmounts.length, \"Create Vault: ERC20 tokens array length and token amounts array length mismatch\");\n        require(erc721Tokens.length == erc721TokensIds.length, \"Create Vault: ERC721 tokens array length and token ids array length mismatch\");\n        \n        claimAssets(msg.sender, erc20Tokens, erc20TokensAmounts, erc721Tokens, erc721TokensIds);\n        gains += VAULT_PRICE;\n\n        vaults[vaultsCount] = Vault({\n            erc20Tokens: erc20Tokens,\n            erc20TokensAmounts: erc20TokensAmounts,\n            erc721Tokens: erc721Tokens,\n            erc721TokensIds: erc721TokensIds,\n            ethAmount: msg.value - VAULT_PRICE,\n            creator: msg.sender,\n            unlockTime: unlockTime,\n            state: State.Created\n        });\n        vaultsByCreator[msg.sender].push(vaultsCount);\n        vaultsByBeneficiary[beneficiary].push(vaultsCount);\n        _safeMint(beneficiary, vaultsCount);\n        \n        vaultsCount = vaultsCount + 1;\n        \n        emit LogVaultCreated(vaults[vaultsCount - 1]);\n    }\n    \n    function vaultData(uint256 vaultId) public view returns (Vault memory) {\n        require(vaultId < vaultsCount, \"Error: Non existent vault\");\n        return vaults[vaultId];\n    }\n    \n    function withdrawAssets(uint256 vaultId) public whenNotPaused {\n        require(vaultId < vaultsCount, \"Withdraw assets: Non existent vault\");\n        \n        Vault storage vault = vaults[vaultId];\n        \n        require(vault.state == State.Created, \"Withdraw assets: Vault already withdrawn\");\n\n        address beneficiary = ownerOf(vaultId);\n        require(msg.sender == beneficiary, \"Withdraw assets: sender is not the beneficiary of this vault\");\n        require(vault.unlockTime <= block.timestamp, \"Withdraw assets: unlock time is after current time\");\n        \n        vault.state = State.Withdrawn;\n\n        for(uint i = 0; i < vault.erc20Tokens.length; i++) {\n            IERC20 token = vault.erc20Tokens[i];\n            uint256 tokenAmount = vault.erc20TokensAmounts[i];\n            token.safeTransfer(beneficiary, tokenAmount);\n        }\n        \n        for(uint i = 0; i < vault.erc721Tokens.length; i++) {\n            IERC721 token = vault.erc721Tokens[i];\n            uint256[] memory tokenIds = vault.erc721TokensIds[i];\n            for(uint j = 0; j < tokenIds.length; j++) {\n                uint256 tokenId = tokenIds[j];\n                token.safeTransferFrom(address(this), beneficiary, tokenId);\n            }\n        }\n\n        Address.sendValue(payable(beneficiary), vault.ethAmount);\n        \n        emit LogVaultAssetsWithdrawn(vault, block.timestamp);\n    }\n\n    function withdrawGains() external onlyOwner {\n        require(gains > 0, \"No Gains to claim\");\n\n        uint256 toCollect = gains;\n        gains = 0;\n\n\t    Address.sendValue(payable(owner()), toCollect);\n\t}\n    \n}",
  "sourcePath": "/Users/ignacio/Documents/Consensys/blockchain-developer-bootcamp-final-project/contracts/TokenVaults.sol",
  "compiler": {
    "name": "solc",
    "version": "0.8.10+commit.fc410830.Emscripten.clang"
  },
  "schemaVersion": "3.4.3",
  "updatedAt": "2021-12-01T02:39:00.976Z",
  "networkType": "ethereum",
  "devdoc": {
    "kind": "dev",
    "methods": {
      "approve(address,uint256)": {
        "details": "See {IERC721-approve}."
      },
      "balanceOf(address)": {
        "details": "See {IERC721-balanceOf}."
      },
      "getApproved(uint256)": {
        "details": "See {IERC721-getApproved}."
      },
      "isApprovedForAll(address,address)": {
        "details": "See {IERC721-isApprovedForAll}."
      },
      "name()": {
        "details": "See {IERC721Metadata-name}."
      },
      "owner()": {
        "details": "Returns the address of the current owner."
      },
      "ownerOf(uint256)": {
        "details": "See {IERC721-ownerOf}."
      },
      "paused()": {
        "details": "Returns true if the contract is paused, and false otherwise."
      },
      "renounceOwnership()": {
        "details": "Leaves the contract without owner. It will not be possible to call `onlyOwner` functions anymore. Can only be called by the current owner. NOTE: Renouncing ownership will leave the contract without an owner, thereby removing any functionality that is only available to the owner."
      },
      "safeTransferFrom(address,address,uint256)": {
        "details": "See {IERC721-safeTransferFrom}."
      },
      "safeTransferFrom(address,address,uint256,bytes)": {
        "details": "See {IERC721-safeTransferFrom}."
      },
      "setApprovalForAll(address,bool)": {
        "details": "See {IERC721-setApprovalForAll}."
      },
      "supportsInterface(bytes4)": {
        "details": "See {IERC165-supportsInterface}."
      },
      "symbol()": {
        "details": "See {IERC721Metadata-symbol}."
      },
      "tokenURI(uint256)": {
        "details": "See {IERC721Metadata-tokenURI}."
      },
      "transferFrom(address,address,uint256)": {
        "details": "See {IERC721-transferFrom}."
      },
      "transferOwnership(address)": {
        "details": "Transfers ownership of the contract to a new account (`newOwner`). Can only be called by the current owner."
      }
    },
    "version": 1
  },
  "userdoc": {
    "kind": "user",
    "methods": {},
    "version": 1
  }
}